{
  "contractName": "TransactionStorageContract",
  "abi": [
    {
      "anonymous": false,
      "inputs": [
        {
          "indexed": true,
          "internalType": "address",
          "name": "_from",
          "type": "address"
        },
        {
          "indexed": false,
          "internalType": "uint256",
          "name": "_timestamp",
          "type": "uint256"
        },
        {
          "indexed": false,
          "internalType": "uint256",
          "name": "_UAN",
          "type": "uint256"
        },
        {
          "components": [
            {
              "internalType": "string",
              "name": "FirstName",
              "type": "string"
            },
            {
              "internalType": "string",
              "name": "LastName",
              "type": "string"
            }
          ],
          "indexed": false,
          "internalType": "struct TransactionStorageContract.RecordStorageVariable",
          "name": "_record",
          "type": "tuple"
        }
      ],
      "name": "TransactionEventVariable",
      "type": "event"
    },
    {
      "inputs": [],
      "name": "CountTransaction",
      "outputs": [
        {
          "internalType": "uint256",
          "name": "",
          "type": "uint256"
        }
      ],
      "stateMutability": "view",
      "type": "function",
      "constant": true
    },
    {
      "inputs": [
        {
          "internalType": "uint256",
          "name": "_UAN",
          "type": "uint256"
        },
        {
          "internalType": "string",
          "name": "_firstName",
          "type": "string"
        },
        {
          "internalType": "string",
          "name": "_lastName",
          "type": "string"
        }
      ],
      "name": "TransactionEventEntryEdit",
      "outputs": [],
      "stateMutability": "nonpayable",
      "type": "function"
    },
    {
      "inputs": [
        {
          "internalType": "uint256",
          "name": "_UAN",
          "type": "uint256"
        },
        {
          "internalType": "string",
          "name": "_firstName",
          "type": "string"
        },
        {
          "internalType": "string",
          "name": "_lastName",
          "type": "string"
        }
      ],
      "name": "TransactionEventEntry",
      "outputs": [],
      "stateMutability": "nonpayable",
      "type": "function"
    },
    {
      "inputs": [
        {
          "internalType": "uint256",
          "name": "_index",
          "type": "uint256"
        }
      ],
      "name": "FetchSpecificTransaction",
      "outputs": [
        {
          "internalType": "address",
          "name": "",
          "type": "address"
        },
        {
          "internalType": "uint256",
          "name": "",
          "type": "uint256"
        },
        {
          "internalType": "uint256",
          "name": "",
          "type": "uint256"
        },
        {
          "internalType": "string",
          "name": "",
          "type": "string"
        },
        {
          "internalType": "string",
          "name": "",
          "type": "string"
        }
      ],
      "stateMutability": "view",
      "type": "function",
      "constant": true
    },
    {
      "inputs": [
        {
          "internalType": "uint256",
          "name": "_UAN",
          "type": "uint256"
        }
      ],
      "name": "FetchSpecificRecords",
      "outputs": [
        {
          "internalType": "string",
          "name": "",
          "type": "string"
        },
        {
          "internalType": "string",
          "name": "",
          "type": "string"
        }
      ],
      "stateMutability": "view",
      "type": "function",
      "constant": true
    },
    {
      "inputs": [],
      "name": "AllTransactions",
      "outputs": [
        {
          "internalType": "address[]",
          "name": "",
          "type": "address[]"
        },
        {
          "internalType": "uint256[]",
          "name": "",
          "type": "uint256[]"
        },
        {
          "internalType": "uint256[]",
          "name": "",
          "type": "uint256[]"
        },
        {
          "internalType": "string[]",
          "name": "",
          "type": "string[]"
        },
        {
          "internalType": "string[]",
          "name": "",
          "type": "string[]"
        }
      ],
      "stateMutability": "view",
      "type": "function",
      "constant": true
    }
  ],
  "bytecode": "0x608060405234801561001057600080fd5b50611c95806100206000396000f3fe608060405234801561001057600080fd5b50600436106100625760003560e01c80630802a40c14610067578063148be22c1461008957806330360d53146100a55780633879ac11146100c35780637f618a4d146100df5780638173b02814610110575b600080fd5b61006f610144565b60405161008095949392919061121c565b60405180910390f35b6100a3600480360381019061009e9190611407565b6105e5565b005b6100ad610843565b6040516100ba91906114a1565b60405180910390f35b6100dd60048036038101906100d89190611407565b61084f565b005b6100f960048036038101906100f491906114bc565b610aa8565b604051610107929190611533565b60405180910390f35b61012a600480360381019061012591906114bc565b610cbc565b60405161013b959493929190611579565b60405180910390f35b60608060608060606000808054905067ffffffffffffffff81111561016c5761016b6112dc565b5b60405190808252806020026020018201604052801561019a5781602001602082028036833780820191505090505b5090506000808054905067ffffffffffffffff8111156101bd576101bc6112dc565b5b6040519080825280602002602001820160405280156101eb5781602001602082028036833780820191505090505b5090506000808054905067ffffffffffffffff81111561020e5761020d6112dc565b5b60405190808252806020026020018201604052801561023c5781602001602082028036833780820191505090505b5090506000808054905067ffffffffffffffff81111561025f5761025e6112dc565b5b60405190808252806020026020018201604052801561029257816020015b606081526020019060019003908161027d5790505b5090506000808054905067ffffffffffffffff8111156102b5576102b46112dc565b5b6040519080825280602002602001820160405280156102e857816020015b60608152602001906001900390816102d35790505b50905060005b6000805490508110156105c9576000818154811061030f5761030e6115da565b5b906000526020600020906005020160000160009054906101000a900473ffffffffffffffffffffffffffffffffffffffff16868281518110610354576103536115da565b5b602002602001019073ffffffffffffffffffffffffffffffffffffffff16908173ffffffffffffffffffffffffffffffffffffffff1681525050600081815481106103a2576103a16115da565b5b9060005260206000209060050201600101548582815181106103c7576103c66115da565b5b602002602001018181525050600081815481106103e7576103e66115da565b5b90600052602060002090600502016002015484828151811061040c5761040b6115da565b5b6020026020010181815250506000818154811061042c5761042b6115da565b5b9060005260206000209060050201600301600001805461044b90611638565b80601f016020809104026020016040519081016040528092919081815260200182805461047790611638565b80156104c45780601f10610499576101008083540402835291602001916104c4565b820191906000526020600020905b8154815290600101906020018083116104a757829003601f168201915b50505050508382815181106104dc576104db6115da565b5b6020026020010181905250600081815481106104fb576104fa6115da565b5b9060005260206000209060050201600301600101805461051a90611638565b80601f016020809104026020016040519081016040528092919081815260200182805461054690611638565b80156105935780601f1061056857610100808354040283529160200191610593565b820191906000526020600020905b81548152906001019060200180831161057657829003601f168201915b50505050508282815181106105ab576105aa6115da565b5b602002602001018190525080806105c190611698565b9150506102ee565b5084848484849950995099509950995050505050509091929394565b60006001905060005b6000805490508110156106435784600082815481106106105761060f6115da565b5b906000526020600020906005020160020154036106305760009150610643565b808061063b90611698565b9150506105ee565b5080610684576040517f08c379a000000000000000000000000000000000000000000000000000000000815260040161067b90611752565b60405180910390fd5b6040518060400160405280848152602001838152506001600086815260200190815260200160002060008201518160000190816106c1919061191e565b5060208201518160010190816106d7919061191e565b5090505060006040518060400160405280858152602001848152509050600060405180608001604052803373ffffffffffffffffffffffffffffffffffffffff16815260200142815260200187815260200183815250908060018154018082558091505060019003906000526020600020906005020160009091909190915060008201518160000160006101000a81548173ffffffffffffffffffffffffffffffffffffffff021916908373ffffffffffffffffffffffffffffffffffffffff160217905550602082015181600101556040820151816002015560608201518160030160008201518160000190816107cf919061191e565b5060208201518160010190816107e5919061191e565b50505050503373ffffffffffffffffffffffffffffffffffffffff167f6b0f48bc941c5a156d519c092f0462323bdb925db922eb8db4eab19e846a7d6f42878460405161083493929190611a34565b60405180910390a25050505050565b60008080549050905090565b6000805b6000805490508110156108a8578460008281548110610875576108746115da565b5b9060005260206000209060050201600201540361089557600191506108a8565b80806108a090611698565b915050610853565b50806108e9576040517f08c379a00000000000000000000000000000000000000000000000000000000081526004016108e090611ae4565b60405180910390fd5b604051806040016040528084815260200183815250600160008681526020019081526020016000206000820151816000019081610926919061191e565b50602082015181600101908161093c919061191e565b5090505060006040518060400160405280858152602001848152509050600060405180608001604052803373ffffffffffffffffffffffffffffffffffffffff16815260200142815260200187815260200183815250908060018154018082558091505060019003906000526020600020906005020160009091909190915060008201518160000160006101000a81548173ffffffffffffffffffffffffffffffffffffffff021916908373ffffffffffffffffffffffffffffffffffffffff16021790555060208201518160010155604082015181600201556060820151816003016000820151816000019081610a34919061191e565b506020820151816001019081610a4a919061191e565b50505050503373ffffffffffffffffffffffffffffffffffffffff167f6b0f48bc941c5a156d519c092f0462323bdb925db922eb8db4eab19e846a7d6f428784604051610a9993929190611a34565b60405180910390a25050505050565b60608060006001600080549050610abf9190611b04565b90505b60008110610c7b578360008281548110610adf57610ade6115da565b5b90600052602060002090600502016002015403610c685760008181548110610b0a57610b096115da565b5b906000526020600020906005020160030160000160008281548110610b3257610b316115da565b5b9060005260206000209060050201600301600101818054610b5290611638565b80601f0160208091040260200160405190810160405280929190818152602001828054610b7e90611638565b8015610bcb5780601f10610ba057610100808354040283529160200191610bcb565b820191906000526020600020905b815481529060010190602001808311610bae57829003601f168201915b50505050509150808054610bde90611638565b80601f0160208091040260200160405190810160405280929190818152602001828054610c0a90611638565b8015610c575780601f10610c2c57610100808354040283529160200191610c57565b820191906000526020600020905b815481529060010190602001808311610c3a57829003601f168201915b505050505090509250925050610cb7565b8080610c7390611b38565b915050610ac2565b506040517f08c379a0000000000000000000000000000000000000000000000000000000008152600401610cae90611bd3565b60405180910390fd5b915091565b60008060006060806000805490508610610d0b576040517f08c379a0000000000000000000000000000000000000000000000000000000008152600401610d0290611c3f565b60405180910390fd5b6000808781548110610d2057610d1f6115da565b5b90600052602060002090600502016040518060800160405290816000820160009054906101000a900473ffffffffffffffffffffffffffffffffffffffff1673ffffffffffffffffffffffffffffffffffffffff1673ffffffffffffffffffffffffffffffffffffffff168152602001600182015481526020016002820154815260200160038201604051806040016040529081600082018054610dc390611638565b80601f0160208091040260200160405190810160405280929190818152602001828054610def90611638565b8015610e3c5780601f10610e1157610100808354040283529160200191610e3c565b820191906000526020600020905b815481529060010190602001808311610e1f57829003601f168201915b50505050508152602001600182018054610e5590611638565b80601f0160208091040260200160405190810160405280929190818152602001828054610e8190611638565b8015610ece5780601f10610ea357610100808354040283529160200191610ece565b820191906000526020600020905b815481529060010190602001808311610eb157829003601f168201915b505050505081525050815250509050806000015181602001518260400151836060015160000151846060015160200151955095509550955095505091939590929450565b600081519050919050565b600082825260208201905092915050565b6000819050602082019050919050565b600073ffffffffffffffffffffffffffffffffffffffff82169050919050565b6000610f6982610f3e565b9050919050565b610f7981610f5e565b82525050565b6000610f8b8383610f70565b60208301905092915050565b6000602082019050919050565b6000610faf82610f12565b610fb98185610f1d565b9350610fc483610f2e565b8060005b83811015610ff5578151610fdc8882610f7f565b9750610fe783610f97565b925050600181019050610fc8565b5085935050505092915050565b600081519050919050565b600082825260208201905092915050565b6000819050602082019050919050565b6000819050919050565b6110418161102e565b82525050565b60006110538383611038565b60208301905092915050565b6000602082019050919050565b600061107782611002565b611081818561100d565b935061108c8361101e565b8060005b838110156110bd5781516110a48882611047565b97506110af8361105f565b925050600181019050611090565b5085935050505092915050565b600081519050919050565b600082825260208201905092915050565b6000819050602082019050919050565b600081519050919050565b600082825260208201905092915050565b60005b83811015611130578082015181840152602081019050611115565b60008484015250505050565b6000601f19601f8301169050919050565b6000611158826110f6565b6111628185611101565b9350611172818560208601611112565b61117b8161113c565b840191505092915050565b6000611192838361114d565b905092915050565b6000602082019050919050565b60006111b2826110ca565b6111bc81856110d5565b9350836020820285016111ce856110e6565b8060005b8581101561120a57848403895281516111eb8582611186565b94506111f68361119a565b925060208a019950506001810190506111d2565b50829750879550505050505092915050565b600060a08201905081810360008301526112368188610fa4565b9050818103602083015261124a818761106c565b9050818103604083015261125e818661106c565b9050818103606083015261127281856111a7565b9050818103608083015261128681846111a7565b90509695505050505050565b6000604051905090565b600080fd5b600080fd5b6112af8161102e565b81146112ba57600080fd5b50565b6000813590506112cc816112a6565b92915050565b600080fd5b600080fd5b7f4e487b7100000000000000000000000000000000000000000000000000000000600052604160045260246000fd5b6113148261113c565b810181811067ffffffffffffffff82111715611333576113326112dc565b5b80604052505050565b6000611346611292565b9050611352828261130b565b919050565b600067ffffffffffffffff821115611372576113716112dc565b5b61137b8261113c565b9050602081019050919050565b82818337600083830152505050565b60006113aa6113a584611357565b61133c565b9050828152602081018484840111156113c6576113c56112d7565b5b6113d1848285611388565b509392505050565b600082601f8301126113ee576113ed6112d2565b5b81356113fe848260208601611397565b91505092915050565b6000806000606084860312156114205761141f61129c565b5b600061142e868287016112bd565b935050602084013567ffffffffffffffff81111561144f5761144e6112a1565b5b61145b868287016113d9565b925050604084013567ffffffffffffffff81111561147c5761147b6112a1565b5b611488868287016113d9565b9150509250925092565b61149b8161102e565b82525050565b60006020820190506114b66000830184611492565b92915050565b6000602082840312156114d2576114d161129c565b5b60006114e0848285016112bd565b91505092915050565b600082825260208201905092915050565b6000611505826110f6565b61150f81856114e9565b935061151f818560208601611112565b6115288161113c565b840191505092915050565b6000604082019050818103600083015261154d81856114fa565b9050818103602083015261156181846114fa565b90509392505050565b61157381610f5e565b82525050565b600060a08201905061158e600083018861156a565b61159b6020830187611492565b6115a86040830186611492565b81810360608301526115ba81856114fa565b905081810360808301526115ce81846114fa565b90509695505050505050565b7f4e487b7100000000000000000000000000000000000000000000000000000000600052603260045260246000fd5b7f4e487b7100000000000000000000000000000000000000000000000000000000600052602260045260246000fd5b6000600282049050600182168061165057607f821691505b60208210810361166357611662611609565b5b50919050565b7f4e487b7100000000000000000000000000000000000000000000000000000000600052601160045260246000fd5b60006116a38261102e565b91507fffffffffffffffffffffffffffffffffffffffffffffffffffffffffffffffff82036116d5576116d4611669565b5b600182019050919050565b7f556e6976657273616c204163636f756e74204e756d62657220697320616c726560008201527f6164792050726573656e7420696e207468652064617461626173650000000000602082015250565b600061173c603b836114e9565b9150611747826116e0565b604082019050919050565b6000602082019050818103600083015261176b8161172f565b9050919050565b60008190508160005260206000209050919050565b60006020601f8301049050919050565b600082821b905092915050565b6000600883026117d47fffffffffffffffffffffffffffffffffffffffffffffffffffffffffffffffff82611797565b6117de8683611797565b95508019841693508086168417925050509392505050565b6000819050919050565b600061181b6118166118118461102e565b6117f6565b61102e565b9050919050565b6000819050919050565b61183583611800565b61184961184182611822565b8484546117a4565b825550505050565b600090565b61185e611851565b61186981848461182c565b505050565b5b8181101561188d57611882600082611856565b60018101905061186f565b5050565b601f8211156118d2576118a381611772565b6118ac84611787565b810160208510156118bb578190505b6118cf6118c785611787565b83018261186e565b50505b505050565b600082821c905092915050565b60006118f5600019846008026118d7565b1980831691505092915050565b600061190e83836118e4565b9150826002028217905092915050565b611927826110f6565b67ffffffffffffffff8111156119405761193f6112dc565b5b61194a8254611638565b611955828285611891565b600060209050601f8311600181146119885760008415611976578287015190505b6119808582611902565b8655506119e8565b601f19841661199686611772565b60005b828110156119be57848901518255600182019150602085019450602081019050611999565b868310156119db57848901516119d7601f8916826118e4565b8355505b6001600288020188555050505b505050505050565b60006040830160008301518482036000860152611a0d828261114d565b91505060208301518482036020860152611a27828261114d565b9150508091505092915050565b6000606082019050611a496000830186611492565b611a566020830185611492565b8181036040830152611a6881846119f0565b9050949350505050565b7f556e6976657273616c204163636f756e74204e756d626572206973206e6f742060008201527f70726573656e7420696e20746865206461746162617365000000000000000000602082015250565b6000611ace6037836114e9565b9150611ad982611a72565b604082019050919050565b60006020820190508181036000830152611afd81611ac1565b9050919050565b6000611b0f8261102e565b9150611b1a8361102e565b9250828203905081811115611b3257611b31611669565b5b92915050565b6000611b438261102e565b915060008203611b5657611b55611669565b5b600182039050919050565b7f5265636f7264206e6f7420666f756e6420666f722074686520676976656e205560008201527f414e000000000000000000000000000000000000000000000000000000000000602082015250565b6000611bbd6022836114e9565b9150611bc882611b61565b604082019050919050565b60006020820190508181036000830152611bec81611bb0565b9050919050565b7f4e6f205472616e73616374696f6e73204d616465000000000000000000000000600082015250565b6000611c296014836114e9565b9150611c3482611bf3565b602082019050919050565b60006020820190508181036000830152611c5881611c1c565b905091905056fea2646970667358221220ccfba85577b77c81135ecf1a47dd43ed1dd92d30f8910ee52bbe1b14df662dbe64736f6c63430008130033",
  "immutableReferences": {},
  "source": "// SPDX-License-Identifier: MIT\r\npragma solidity ^0.8.9;\r\n\r\ncontract TransactionStorageContract {\r\n    event TransactionEventVariable(\r\n        address indexed _from,\r\n        uint256 _timestamp,\r\n        uint256 _UAN,\r\n        RecordStorageVariable _record\r\n    );\r\n\r\n    struct RecordStorageVariable {\r\n        string FirstName;\r\n        string LastName;\r\n        // string Gender;\r\n        // string BloodGroup;\r\n        // bool Divyangjan;\r\n        // string DivyangjanType;\r\n        // string Catergory;\r\n        // bool Minority;\r\n        // uint AadhaarNumber;\r\n        // uint PanCardNumber;\r\n        // string PrimaryOccupation;\r\n        // string CurrentAddress;\r\n        // string ContactAddress;\r\n        // uint ContactNumber;\r\n        // bool MartialStatus;\r\n        // string PermanentAddress;\r\n        // string State;\r\n        // string District;\r\n        // uint Block;\r\n        // string BusinessName;\r\n        // string BusinessAddress;\r\n        // string BusinessState;\r\n        // string BusinessPincode;\r\n    }\r\n\r\n    struct TransactionVariables {\r\n        address user;\r\n        uint256 timestamp;\r\n        uint256 UAN; //Universal Account Number\r\n        RecordStorageVariable record;\r\n    }\r\n\r\n    TransactionVariables[] TransactionArray;\r\n\r\n    function CountTransaction() public view returns (uint256) {\r\n        return TransactionArray.length;\r\n    }\r\n\r\n    mapping(uint256 => RecordStorageVariable) RecordDataConnector;\r\n\r\n    function TransactionEventEntryEdit(\r\n        uint256 _UAN,\r\n        string memory _firstName,\r\n        string memory _lastName\r\n    ) public {\r\n        bool found = false;\r\n        for (uint256 i = 0; i < TransactionArray.length; i++) {\r\n            if (TransactionArray[i].UAN == _UAN) {\r\n                found = true;\r\n                break;\r\n            }\r\n        }\r\n        require(\r\n            found,\r\n            \"Universal Account Number is not present in the database\"\r\n        );\r\n        RecordDataConnector[_UAN] = RecordStorageVariable(\r\n            _firstName,\r\n            _lastName\r\n        );\r\n        RecordStorageVariable memory record = RecordStorageVariable(\r\n            _firstName,\r\n            _lastName\r\n        );\r\n        TransactionArray.push(\r\n            TransactionVariables(msg.sender, block.timestamp, _UAN, record)\r\n        );\r\n        emit TransactionEventVariable(\r\n            msg.sender,\r\n            block.timestamp,\r\n            _UAN,\r\n            record\r\n        );\r\n    }\r\n\r\n    function TransactionEventEntry(\r\n        uint256 _UAN,\r\n        string memory _firstName,\r\n        string memory _lastName\r\n    ) public {\r\n        bool found = true;\r\n        for (uint256 i = 0; i < TransactionArray.length; i++) {\r\n            if (TransactionArray[i].UAN == _UAN) {\r\n                found = false;\r\n                break;\r\n            }\r\n        }\r\n        require(\r\n            found,\r\n            \"Universal Account Number is already Present in the database\"\r\n        );\r\n\r\n        RecordDataConnector[_UAN] = RecordStorageVariable(\r\n            _firstName,\r\n            _lastName\r\n        );\r\n        RecordStorageVariable memory record = RecordStorageVariable(\r\n            _firstName,\r\n            _lastName\r\n        );\r\n        TransactionArray.push(\r\n            TransactionVariables(msg.sender, block.timestamp, _UAN, record)\r\n        );\r\n        emit TransactionEventVariable(\r\n            msg.sender,\r\n            block.timestamp,\r\n            _UAN,\r\n            record\r\n        );\r\n    }\r\n\r\n    function FetchSpecificTransaction(\r\n        uint256 _index\r\n    )\r\n        public\r\n        view\r\n        returns (address, uint256, uint256, string memory, string memory)\r\n    {\r\n        require(_index < TransactionArray.length, \"No Transactions Made\");\r\n        TransactionVariables memory transaction = TransactionArray[_index];\r\n        return (\r\n            transaction.user,\r\n            transaction.timestamp,\r\n            transaction.UAN,\r\n            transaction.record.FirstName,\r\n            transaction.record.LastName\r\n        );\r\n    }\r\n\r\n    function FetchSpecificRecords(\r\n        uint256 _UAN\r\n    ) public view returns (string memory, string memory) {\r\n        for (uint256 i = TransactionArray.length - 1; i >= 0; i--) {\r\n            if (TransactionArray[i].UAN == _UAN) {\r\n                return (\r\n                    TransactionArray[i].record.FirstName,\r\n                    TransactionArray[i].record.LastName\r\n                );\r\n            }\r\n        }\r\n        revert(\"Record not found for the given UAN\"); // Revert if no record is found for the given UAN\r\n    }\r\n\r\n    function AllTransactions()\r\n        public\r\n        view\r\n        returns (\r\n            address[] memory,\r\n            uint256[] memory,\r\n            uint256[] memory,\r\n            string[] memory,\r\n            string[] memory\r\n        )\r\n    {\r\n        address[] memory users = new address[](TransactionArray.length);\r\n        uint256[] memory timestamps = new uint256[](TransactionArray.length);\r\n        uint256[] memory UANs = new uint256[](TransactionArray.length);\r\n        string[] memory FirstNames = new string[](TransactionArray.length);\r\n        string[] memory LastNames = new string[](TransactionArray.length);\r\n\r\n        for (uint256 i = 0; i < TransactionArray.length; i++) {\r\n            users[i] = TransactionArray[i].user;\r\n            timestamps[i] = TransactionArray[i].timestamp;\r\n            UANs[i] = TransactionArray[i].UAN;\r\n            FirstNames[i] = TransactionArray[i].record.FirstName;\r\n            LastNames[i] = TransactionArray[i].record.LastName;\r\n        }\r\n\r\n        return (users, timestamps, UANs, FirstNames, LastNames);\r\n    }\r\n}\r\n",
  "sourcePath": "C:\\Users\\Asus\\Desktop\\work\\project\\1\\record_managing_portal\\contracts\\TransactionStorageContract.sol",
  "compiler": {
    "name": "solc",
    "version": "0.8.19+commit.7dd6d404.Emscripten.clang"
  },
  "schemaVersion": "3.4.16",
  "updatedAt": "2024-04-14T10:13:42.946Z",
  "networkType": "ethereum",
  "devdoc": {
    "kind": "dev",
    "methods": {},
    "version": 1
  },
  "userdoc": {
    "kind": "user",
    "methods": {},
    "version": 1
  }
}